{
  "contractName": "Logger",
  "abi": [
    {
      "constant": true,
      "inputs": [
        {
          "name": "",
          "type": "address"
        }
      ],
      "name": "addressLookup",
      "outputs": [
        {
          "name": "",
          "type": "string"
        }
      ],
      "payable": false,
      "stateMutability": "view",
      "type": "function",
      "signature": "0xf202bc05"
    },
    {
      "anonymous": false,
      "inputs": [
        {
          "indexed": true,
          "name": "EventSource",
          "type": "address"
        },
        {
          "indexed": true,
          "name": "EventId",
          "type": "uint256"
        },
        {
          "indexed": true,
          "name": "EventType",
          "type": "bytes32"
        },
        {
          "indexed": false,
          "name": "DataLink",
          "type": "string"
        },
        {
          "indexed": false,
          "name": "DataLinkType",
          "type": "bytes32"
        }
      ],
      "name": "LoggerEvent",
      "type": "event",
      "signature": "0xdacb24192b7943c272aa2da1e408d743870ff89e22e09b4e3ed4ba0b4319df25"
    },
    {
      "constant": false,
      "inputs": [
        {
          "name": "_eventId",
          "type": "uint256"
        },
        {
          "name": "_eventType",
          "type": "bytes32"
        },
        {
          "name": "_dataLink",
          "type": "string"
        },
        {
          "name": "_dataLinkType",
          "type": "bytes32"
        }
      ],
      "name": "recordEvent",
      "outputs": [
        {
          "name": "",
          "type": "bool"
        }
      ],
      "payable": false,
      "stateMutability": "nonpayable",
      "type": "function",
      "signature": "0x55269260"
    },
    {
      "constant": false,
      "inputs": [
        {
          "name": "_newLookupValue",
          "type": "string"
        }
      ],
      "name": "setAddressLookup",
      "outputs": [
        {
          "name": "",
          "type": "bool"
        }
      ],
      "payable": false,
      "stateMutability": "nonpayable",
      "type": "function",
      "signature": "0x38c7cf14"
    }
  ],
  "bytecode": "0x608060405234801561001057600080fd5b506105ae806100206000396000f3fe608060405260043610610057576000357c0100000000000000000000000000000000000000000000000000000000900463ffffffff16806338c7cf141461005c578063552692601461013c578063f202bc051461023a575b600080fd5b34801561006857600080fd5b506101226004803603602081101561007f57600080fd5b810190808035906020019064010000000081111561009c57600080fd5b8201836020820111156100ae57600080fd5b803590602001918460018302840111640100000000831117156100d057600080fd5b91908080601f016020809104026020016040519081016040528093929190818152602001838380828437600081840152601f19601f820116905080830192505050505050509192919290505050610304565b604051808215151515815260200191505060405180910390f35b34801561014857600080fd5b506102206004803603608081101561015f57600080fd5b8101908080359060200190929190803590602001909291908035906020019064010000000081111561019057600080fd5b8201836020820111156101a257600080fd5b803590602001918460018302840111640100000000831117156101c457600080fd5b91908080601f016020809104026020016040519081016040528093929190818152602001838380828437600081840152601f19601f82011690508083019250505050505050919291929080359060200190929190505050610362565b604051808215151515815260200191505060405180910390f35b34801561024657600080fd5b506102896004803603602081101561025d57600080fd5b81019080803573ffffffffffffffffffffffffffffffffffffffff16906020019092919050505061042d565b6040518080602001828103825283818151815260200191508051906020019080838360005b838110156102c95780820151818401526020810190506102ae565b50505050905090810190601f1680156102f65780820380516001836020036101000a031916815260200191505b509250505060405180910390f35b6000816000803373ffffffffffffffffffffffffffffffffffffffff1673ffffffffffffffffffffffffffffffffffffffff16815260200190815260200160002090805190602001906103589291906104dd565b5060019050919050565b600083853373ffffffffffffffffffffffffffffffffffffffff167fdacb24192b7943c272aa2da1e408d743870ff89e22e09b4e3ed4ba0b4319df2586866040518080602001838152602001828103825284818151815260200191508051906020019080838360005b838110156103e65780820151818401526020810190506103cb565b50505050905090810190601f1680156104135780820380516001836020036101000a031916815260200191505b50935050505060405180910390a460019050949350505050565b60006020528060005260406000206000915090508054600181600116156101000203166002900480601f0160208091040260200160405190810160405280929190818152602001828054600181600116156101000203166002900480156104d55780601f106104aa576101008083540402835291602001916104d5565b820191906000526020600020905b8154815290600101906020018083116104b857829003601f168201915b505050505081565b828054600181600116156101000203166002900490600052602060002090601f016020900481019282601f1061051e57805160ff191683800117855561054c565b8280016001018555821561054c579182015b8281111561054b578251825591602001919060010190610530565b5b509050610559919061055d565b5090565b61057f91905b8082111561057b576000816000905550600101610563565b5090565b9056fea165627a7a7230582099457c5becb46b0a72ab2a11f772cb907aa892f0718619753674ef359a9b19230029",
  "source": "pragma solidity >=0.4.21 <0.6.0;\n\ncontract Logger {\n\n    mapping(address => string) public addressLookup;\n\n    event LoggerEvent(\n        address indexed EventSource,\n        uint256 indexed EventId,\n        bytes32 indexed EventType,\n        string  DataLink,\n        bytes32 DataLinkType\n    );\n\n    function recordEvent(uint256 _eventId, bytes32 _eventType, string memory _dataLink, bytes32 _dataLinkType) public returns(bool) {\n        emit LoggerEvent(msg.sender, _eventId, _eventType, _dataLink, _dataLinkType);\n        return true;\n    }\n\n    function setAddressLookup(string memory _newLookupValue) public returns(bool) {\n        addressLookup[msg.sender] = _newLookupValue;\n        return true;\n    }\n}\n",
  "sourcePath": "/Users/mattober/Repos/EthereumDev/ETHDenver2019/api/truffle/contracts/Logger.sol",
  "compiler": {
    "name": "solc",
    "version": "0.5.0+commit.1d4f565a.Emscripten.clang"
  },
  "schemaVersion": "3.0.2",
  "updatedAt": "2019-02-16T23:51:21.074Z",
  "devdoc": {
    "methods": {}
  },
  "userdoc": {
    "methods": {}
  }
}